{
  "address": "0xDFfED66923294e11e23C4F88788AdC54dE7dc6df",
  "abi": [
    {
      "inputs": [
        {
          "internalType": "uint16",
          "name": "_feeBps",
          "type": "uint16"
        },
        {
          "internalType": "address",
          "name": "_feeRecipient",
          "type": "address"
        }
      ],
      "stateMutability": "nonpayable",
      "type": "constructor"
    },
    {
      "anonymous": false,
      "inputs": [
        {
          "indexed": true,
          "internalType": "address",
          "name": "nft",
          "type": "address"
        },
        {
          "indexed": true,
          "internalType": "uint256",
          "name": "tokenId",
          "type": "uint256"
        },
        {
          "indexed": true,
          "internalType": "address",
          "name": "buyer",
          "type": "address"
        },
        {
          "indexed": false,
          "internalType": "uint256",
          "name": "price",
          "type": "uint256"
        }
      ],
      "name": "ItemBought",
      "type": "event"
    },
    {
      "anonymous": false,
      "inputs": [
        {
          "indexed": true,
          "internalType": "address",
          "name": "nft",
          "type": "address"
        },
        {
          "indexed": true,
          "internalType": "uint256",
          "name": "tokenId",
          "type": "uint256"
        },
        {
          "indexed": true,
          "internalType": "address",
          "name": "seller",
          "type": "address"
        }
      ],
      "name": "ItemCanceled",
      "type": "event"
    },
    {
      "anonymous": false,
      "inputs": [
        {
          "indexed": true,
          "internalType": "address",
          "name": "nft",
          "type": "address"
        },
        {
          "indexed": true,
          "internalType": "uint256",
          "name": "tokenId",
          "type": "uint256"
        },
        {
          "indexed": true,
          "internalType": "address",
          "name": "seller",
          "type": "address"
        },
        {
          "indexed": false,
          "internalType": "uint256",
          "name": "price",
          "type": "uint256"
        }
      ],
      "name": "ItemListed",
      "type": "event"
    },
    {
      "anonymous": false,
      "inputs": [
        {
          "indexed": true,
          "internalType": "address",
          "name": "nft",
          "type": "address"
        },
        {
          "indexed": true,
          "internalType": "uint256",
          "name": "tokenId",
          "type": "uint256"
        },
        {
          "indexed": true,
          "internalType": "address",
          "name": "seller",
          "type": "address"
        },
        {
          "indexed": false,
          "internalType": "uint256",
          "name": "newPrice",
          "type": "uint256"
        }
      ],
      "name": "ItemUpdated",
      "type": "event"
    },
    {
      "anonymous": false,
      "inputs": [
        {
          "indexed": true,
          "internalType": "address",
          "name": "previousOwner",
          "type": "address"
        },
        {
          "indexed": true,
          "internalType": "address",
          "name": "newOwner",
          "type": "address"
        }
      ],
      "name": "OwnershipTransferred",
      "type": "event"
    },
    {
      "anonymous": false,
      "inputs": [
        {
          "indexed": false,
          "internalType": "address",
          "name": "account",
          "type": "address"
        }
      ],
      "name": "Paused",
      "type": "event"
    },
    {
      "anonymous": false,
      "inputs": [
        {
          "indexed": false,
          "internalType": "address",
          "name": "account",
          "type": "address"
        }
      ],
      "name": "Unpaused",
      "type": "event"
    },
    {
      "inputs": [
        {
          "internalType": "address",
          "name": "nft",
          "type": "address"
        },
        {
          "internalType": "uint256",
          "name": "tokenId",
          "type": "uint256"
        }
      ],
      "name": "buyItem",
      "outputs": [],
      "stateMutability": "payable",
      "type": "function"
    },
    {
      "inputs": [
        {
          "internalType": "address",
          "name": "nft",
          "type": "address"
        },
        {
          "internalType": "uint256",
          "name": "tokenId",
          "type": "uint256"
        }
      ],
      "name": "cancelListing",
      "outputs": [],
      "stateMutability": "nonpayable",
      "type": "function"
    },
    {
      "inputs": [],
      "name": "feeBps",
      "outputs": [
        {
          "internalType": "uint16",
          "name": "",
          "type": "uint16"
        }
      ],
      "stateMutability": "view",
      "type": "function"
    },
    {
      "inputs": [],
      "name": "feeRecipient",
      "outputs": [
        {
          "internalType": "address",
          "name": "",
          "type": "address"
        }
      ],
      "stateMutability": "view",
      "type": "function"
    },
    {
      "inputs": [
        {
          "internalType": "address",
          "name": "seller",
          "type": "address"
        }
      ],
      "name": "getSellerListings",
      "outputs": [
        {
          "internalType": "uint256[]",
          "name": "",
          "type": "uint256[]"
        }
      ],
      "stateMutability": "view",
      "type": "function"
    },
    {
      "inputs": [
        {
          "internalType": "address",
          "name": "nft",
          "type": "address"
        },
        {
          "internalType": "uint256",
          "name": "tokenId",
          "type": "uint256"
        },
        {
          "internalType": "uint256",
          "name": "price",
          "type": "uint256"
        }
      ],
      "name": "listItem",
      "outputs": [],
      "stateMutability": "nonpayable",
      "type": "function"
    },
    {
      "inputs": [
        {
          "internalType": "address",
          "name": "",
          "type": "address"
        },
        {
          "internalType": "uint256",
          "name": "",
          "type": "uint256"
        }
      ],
      "name": "listings",
      "outputs": [
        {
          "internalType": "address",
          "name": "seller",
          "type": "address"
        },
        {
          "internalType": "uint256",
          "name": "price",
          "type": "uint256"
        }
      ],
      "stateMutability": "view",
      "type": "function"
    },
    {
      "inputs": [],
      "name": "owner",
      "outputs": [
        {
          "internalType": "address",
          "name": "",
          "type": "address"
        }
      ],
      "stateMutability": "view",
      "type": "function"
    },
    {
      "inputs": [],
      "name": "pause",
      "outputs": [],
      "stateMutability": "nonpayable",
      "type": "function"
    },
    {
      "inputs": [],
      "name": "paused",
      "outputs": [
        {
          "internalType": "bool",
          "name": "",
          "type": "bool"
        }
      ],
      "stateMutability": "view",
      "type": "function"
    },
    {
      "inputs": [],
      "name": "renounceOwnership",
      "outputs": [],
      "stateMutability": "nonpayable",
      "type": "function"
    },
    {
      "inputs": [
        {
          "internalType": "uint16",
          "name": "_feeBps",
          "type": "uint16"
        },
        {
          "internalType": "address",
          "name": "_feeRecipient",
          "type": "address"
        }
      ],
      "name": "setFeeBps",
      "outputs": [],
      "stateMutability": "nonpayable",
      "type": "function"
    },
    {
      "inputs": [
        {
          "internalType": "address",
          "name": "newOwner",
          "type": "address"
        }
      ],
      "name": "transferOwnership",
      "outputs": [],
      "stateMutability": "nonpayable",
      "type": "function"
    },
    {
      "inputs": [],
      "name": "unpause",
      "outputs": [],
      "stateMutability": "nonpayable",
      "type": "function"
    },
    {
      "inputs": [
        {
          "internalType": "address",
          "name": "nft",
          "type": "address"
        },
        {
          "internalType": "uint256",
          "name": "tokenId",
          "type": "uint256"
        },
        {
          "internalType": "uint256",
          "name": "newPrice",
          "type": "uint256"
        }
      ],
      "name": "updateListing",
      "outputs": [],
      "stateMutability": "nonpayable",
      "type": "function"
    },
    {
      "inputs": [
        {
          "internalType": "address",
          "name": "token",
          "type": "address"
        },
        {
          "internalType": "uint256",
          "name": "amount",
          "type": "uint256"
        }
      ],
      "name": "withdrawERC20",
      "outputs": [],
      "stateMutability": "nonpayable",
      "type": "function"
    }
  ],
  "transactionHash": "0xf37998f3cf84ec994eb09b9f859df7e0dbce99f58fb70504faf419180ba166cf",
  "args": [
    200,
    "0x0CF9Dcf86Ec3A20BF54E852E99823f2978552ED1"
  ],
  "numDeployments": 2,
  "solcInputHash": "272e602cf901a86643c192742711e61c",
  "bytecode": "0x608060405234801561001057600080fd5b5060405161154e38038061154e83398101604081905261002f916100d7565b600160005561003d33610085565b6001805461ffff909316600160a81b0262ffffff60a01b1990931692909217909155600280546001600160a01b039092166001600160a01b0319909216919091179055610124565b600180546001600160a01b038381166001600160a01b0319831681179093556040519116919082907f8be0079c531659141344cd1fd0a4f28419497f9722a3daafe3b4186f6b6457e090600090a35050565b600080604083850312156100ea57600080fd5b825161ffff811681146100fc57600080fd5b60208401519092506001600160a01b038116811461011957600080fd5b809150509250929050565b61141b806101336000396000f3fe6080604052600436106100f25760003560e01c806389bfd38f1161008a578063a1db978211610059578063a1db9782146102dc578063b2ddee06146102fc578063f2fde38b1461031c578063f772adf11461033c57600080fd5b806389bfd38f1461026b5780638da5cb5b1461028b57806392ac1db9146102a95780639f37092a146102c957600080fd5b80635c975abb116100c65780635c975abb146101ea5780635f42da0914610214578063715018a6146102415780638456cb591461025657600080fd5b806207df30146100f757806324a9d853146101665780633f4ba83a1461019b57806346904840146101b2575b600080fd5b34801561010357600080fd5b50610142610112366004611228565b6003602090815260009283526040808420909152908252902080546001909101546001600160a01b039091169082565b604080516001600160a01b0390931683526020830191909152015b60405180910390f35b34801561017257600080fd5b5060015461018890600160a81b900461ffff1681565b60405161ffff909116815260200161015d565b3480156101a757600080fd5b506101b061035c565b005b3480156101be57600080fd5b506002546101d2906001600160a01b031681565b6040516001600160a01b03909116815260200161015d565b3480156101f657600080fd5b50600154600160a01b900460ff16604051901515815260200161015d565b34801561022057600080fd5b5061023461022f366004611252565b61036e565b60405161015d919061126d565b34801561024d57600080fd5b506101b0610436565b34801561026257600080fd5b506101b0610448565b34801561027757600080fd5b506101b06102863660046112b0565b610458565b34801561029757600080fd5b506001546001600160a01b03166101d2565b3480156102b557600080fd5b506101b06102c43660046112e3565b610602565b6101b06102d7366004611228565b6106be565b3480156102e857600080fd5b506101b06102f7366004611228565b6108cc565b34801561030857600080fd5b506101b0610317366004611228565b610a24565b34801561032857600080fd5b506101b0610337366004611252565b610ba4565b34801561034857600080fd5b506101b06103573660046112b0565b610c34565b610364610cfc565b61036c610d56565b565b6001600160a01b03811660009081526004602052604081206060919061039390610dab565b905060008167ffffffffffffffff8111156103b0576103b061131f565b6040519080825280602002602001820160405280156103d9578160200160208202803683370190505b50905060005b8281101561042e576001600160a01b03851660009081526004602052604090206104099082610dbb565b82828151811061041b5761041b611335565b60209081029190910101526001016103df565b509392505050565b61043e610cfc565b61036c6000610dce565b610450610cfc565b61036c610e20565b610460610e63565b610468610ebd565b600081116104bd5760405162461bcd60e51b815260206004820152600960248201527f5072696365203e2030000000000000000000000000000000000000000000000060448201526064015b60405180910390fd5b6040517f23b872dd000000000000000000000000000000000000000000000000000000008152336004820152306024820152604481018390526001600160a01b038416906323b872dd90606401600060405180830381600087803b15801561052457600080fd5b505af1158015610538573d6000803e3d6000fd5b50506040805180820182523380825260208083018781526001600160a01b038a81166000908152600384528681208b82528452868120955186546001600160a01b0319169216919091178555905160019094019390935590825260049052206105a49250905083610f16565b50336001600160a01b031682846001600160a01b03167fb29a3c5d9c9eb8230bd277c54293a0a15e98cd5592a3e0d470fe9ce59fed54f1846040516105eb91815260200190565b60405180910390a46105fd6001600055565b505050565b61060a610cfc565b6127108261ffff1611156106605760405162461bcd60e51b815260206004820152600c60248201527f46656520746f6f2068696768000000000000000000000000000000000000000060448201526064016104b4565b6001805461ffff909316600160a81b027fffffffffffffffffff0000ffffffffffffffffffffffffffffffffffffffffff90931692909217909155600280546001600160a01b039092166001600160a01b0319909216919091179055565b6106c6610e63565b6106ce610ebd565b6001600160a01b03808316600090815260036020908152604080832085845282529182902082518084019093528054909316825260019092015491810182905290158015906107205750806020015134145b61076c5760405162461bcd60e51b815260206004820152600a60248201527f4e6f74206c69737465640000000000000000000000000000000000000000000060448201526064016104b4565b6001600160a01b038084166000908152600360209081526040808320868452825280832080546001600160a01b03191681556001018390558451909316825260049052206107ba9083610f22565b50600154600090612710906107da90600160a81b900461ffff1634611361565b6107e49190611378565b90506108046107f3823461139a565b83516001600160a01b031690610f2e565b604051632142170760e11b8152306004820152336024820152604481018490526001600160a01b038516906342842e0e90606401600060405180830381600087803b15801561085257600080fd5b505af1158015610866573d6000803e3d6000fd5b50505050336001600160a01b031683856001600160a01b03167f3e54435e36ae559863863c86ae49ae6974ff464d5ccf01c2aae2254c9131b1a685602001516040516108b491815260200190565b60405180910390a450506108c86001600055565b5050565b6108d4610cfc565b6001600160a01b03821661092a5760405162461bcd60e51b815260206004820152600d60248201527f496e76616c696420746f6b656e0000000000000000000000000000000000000060448201526064016104b4565b6000811161097a5760405162461bcd60e51b815260206004820152600e60248201527f496e76616c696420616d6f756e7400000000000000000000000000000000000060448201526064016104b4565b816001600160a01b031663a9059cbb61099b6001546001600160a01b031690565b6040517fffffffff0000000000000000000000000000000000000000000000000000000060e084901b1681526001600160a01b039091166004820152602481018490526044016020604051808303816000875af1158015610a00573d6000803e3d6000fd5b505050506040513d601f19601f820116820180604052508101906105fd91906113ad565b610a2c610e63565b610a34610ebd565b6001600160a01b0380831660009081526003602090815260408083208584528252918290208251808401909352805490931680835260019093015490820152903314610aaf5760405162461bcd60e51b815260206004820152600a6024820152692737ba1039b2b63632b960b11b60448201526064016104b4565b6001600160a01b0383166000908152600360209081526040808320858452825280832080546001600160a01b031916815560010183905533835260049091529020610afa9083610f22565b50604051632142170760e11b8152306004820152336024820152604481018390526001600160a01b038416906342842e0e90606401600060405180830381600087803b158015610b4957600080fd5b505af1158015610b5d573d6000803e3d6000fd5b50506040513392508491506001600160a01b038616907fc448b641f9d136b2082a1543ddddd8b6f8b86576bc444a187505ea3934bac2f890600090a4506108c86001600055565b610bac610cfc565b6001600160a01b038116610c285760405162461bcd60e51b815260206004820152602660248201527f4f776e61626c653a206e6577206f776e657220697320746865207a65726f206160448201527f646472657373000000000000000000000000000000000000000000000000000060648201526084016104b4565b610c3181610dce565b50565b610c3c610e63565b610c44610ebd565b6001600160a01b038084166000908152600360209081526040808320868452909152902080549091163314610ca85760405162461bcd60e51b815260206004820152600a6024820152692737ba1039b2b63632b960b11b60448201526064016104b4565b60018101829055604051828152339084906001600160a01b038716907f1d505b9c03351bb41a2b7b3b7de3c464989a83a663264cb6dc34ea9c14feb8bb9060200160405180910390a4506105fd6001600055565b6001546001600160a01b0316331461036c5760405162461bcd60e51b815260206004820181905260248201527f4f776e61626c653a2063616c6c6572206973206e6f7420746865206f776e657260448201526064016104b4565b610d5e611047565b6001805460ff60a01b191690557f5db9ee0a495bf2e6ff9c91a7834c1ba4fdd244a5e8aa4e537bd38aeae4b073aa335b6040516001600160a01b03909116815260200160405180910390a1565b6000610db5825490565b92915050565b6000610dc783836110a0565b9392505050565b600180546001600160a01b038381166001600160a01b0319831681179093556040519116919082907f8be0079c531659141344cd1fd0a4f28419497f9722a3daafe3b4186f6b6457e090600090a35050565b610e28610e63565b6001805460ff60a01b1916600160a01b1790557f62e78cea01bee320cd4e420270b5ea74000d11b0c9f74754ebdbfc544b05a258610d8e3390565b600154600160a01b900460ff161561036c5760405162461bcd60e51b815260206004820152601060248201527f5061757361626c653a207061757365640000000000000000000000000000000060448201526064016104b4565b600260005403610f0f5760405162461bcd60e51b815260206004820152601f60248201527f5265656e7472616e637947756172643a207265656e7472616e742063616c6c0060448201526064016104b4565b6002600055565b6000610dc783836110ca565b6000610dc78383611119565b80471015610f7e5760405162461bcd60e51b815260206004820152601d60248201527f416464726573733a20696e73756666696369656e742062616c616e636500000060448201526064016104b4565b6000826001600160a01b03168260405160006040518083038185875af1925050503d8060008114610fcb576040519150601f19603f3d011682016040523d82523d6000602084013e610fd0565b606091505b50509050806105fd5760405162461bcd60e51b815260206004820152603a60248201527f416464726573733a20756e61626c6520746f2073656e642076616c75652c207260448201527f6563697069656e74206d6179206861766520726576657274656400000000000060648201526084016104b4565b600154600160a01b900460ff1661036c5760405162461bcd60e51b815260206004820152601460248201527f5061757361626c653a206e6f742070617573656400000000000000000000000060448201526064016104b4565b60008260000182815481106110b7576110b7611335565b9060005260206000200154905092915050565b600081815260018301602052604081205461111157508154600181810184556000848152602080822090930184905584548482528286019093526040902091909155610db5565b506000610db5565b6000818152600183016020526040812054801561120257600061113d60018361139a565b85549091506000906111519060019061139a565b90508181146111b657600086600001828154811061117157611171611335565b906000526020600020015490508087600001848154811061119457611194611335565b6000918252602080832090910192909255918252600188019052604090208390555b85548690806111c7576111c76113cf565b600190038181906000526020600020016000905590558560010160008681526020019081526020016000206000905560019350505050610db5565b6000915050610db5565b80356001600160a01b038116811461122357600080fd5b919050565b6000806040838503121561123b57600080fd5b6112448361120c565b946020939093013593505050565b60006020828403121561126457600080fd5b610dc78261120c565b602080825282518282018190526000918401906040840190835b818110156112a5578351835260209384019390920191600101611287565b509095945050505050565b6000806000606084860312156112c557600080fd5b6112ce8461120c565b95602085013595506040909401359392505050565b600080604083850312156112f657600080fd5b823561ffff8116811461130857600080fd5b91506113166020840161120c565b90509250929050565b634e487b7160e01b600052604160045260246000fd5b634e487b7160e01b600052603260045260246000fd5b634e487b7160e01b600052601160045260246000fd5b8082028115828204841417610db557610db561134b565b60008261139557634e487b7160e01b600052601260045260246000fd5b500490565b81810381811115610db557610db561134b565b6000602082840312156113bf57600080fd5b81518015158114610dc757600080fd5b634e487b7160e01b600052603160045260246000fdfea264697066735822122044d8775b52e5fd9066797ac783335ff56056dd77b716a0f626244b26c22a5bf264736f6c634300081c0033",
  "devdoc": {
    "events": {
      "Paused(address)": {
        "details": "Emitted when the pause is triggered by `account`."
      },
      "Unpaused(address)": {
        "details": "Emitted when the pause is lifted by `account`."
      }
    },
    "kind": "dev",
    "methods": {
      "owner()": {
        "details": "Returns the address of the current owner."
      },
      "paused()": {
        "details": "Returns true if the contract is paused, and false otherwise."
      },
      "renounceOwnership()": {
        "details": "Leaves the contract without owner. It will not be possible to call `onlyOwner` functions. Can only be called by the current owner. NOTE: Renouncing ownership will leave the contract without an owner, thereby disabling any functionality that is only available to the owner."
      },
      "transferOwnership(address)": {
        "details": "Transfers ownership of the contract to a new account (`newOwner`). Can only be called by the current owner."
      }
    },
    "version": 1
  },
  "userdoc": {
    "kind": "user",
    "methods": {},
    "version": 1
  },
  "storageLayout": {
    "storage": [
      {
        "astId": 231,
        "contract": "contracts/NFTMarketplace.sol:NFTMarketplace",
        "label": "_status",
        "offset": 0,
        "slot": "0",
        "type": "t_uint256"
      },
      {
        "astId": 7,
        "contract": "contracts/NFTMarketplace.sol:NFTMarketplace",
        "label": "_owner",
        "offset": 0,
        "slot": "1",
        "type": "t_address"
      },
      {
        "astId": 130,
        "contract": "contracts/NFTMarketplace.sol:NFTMarketplace",
        "label": "_paused",
        "offset": 20,
        "slot": "1",
        "type": "t_bool"
      },
      {
        "astId": 1493,
        "contract": "contracts/NFTMarketplace.sol:NFTMarketplace",
        "label": "feeBps",
        "offset": 21,
        "slot": "1",
        "type": "t_uint16"
      },
      {
        "astId": 1495,
        "contract": "contracts/NFTMarketplace.sol:NFTMarketplace",
        "label": "feeRecipient",
        "offset": 0,
        "slot": "2",
        "type": "t_address"
      },
      {
        "astId": 1502,
        "contract": "contracts/NFTMarketplace.sol:NFTMarketplace",
        "label": "listings",
        "offset": 0,
        "slot": "3",
        "type": "t_mapping(t_address,t_mapping(t_uint256,t_struct(Listing)1478_storage))"
      },
      {
        "astId": 1507,
        "contract": "contracts/NFTMarketplace.sol:NFTMarketplace",
        "label": "sellerListings",
        "offset": 0,
        "slot": "4",
        "type": "t_mapping(t_address,t_struct(UintSet)1334_storage)"
      }
    ],
    "types": {
      "t_address": {
        "encoding": "inplace",
        "label": "address",
        "numberOfBytes": "20"
      },
      "t_array(t_bytes32)dyn_storage": {
        "base": "t_bytes32",
        "encoding": "dynamic_array",
        "label": "bytes32[]",
        "numberOfBytes": "32"
      },
      "t_bool": {
        "encoding": "inplace",
        "label": "bool",
        "numberOfBytes": "1"
      },
      "t_bytes32": {
        "encoding": "inplace",
        "label": "bytes32",
        "numberOfBytes": "32"
      },
      "t_mapping(t_address,t_mapping(t_uint256,t_struct(Listing)1478_storage))": {
        "encoding": "mapping",
        "key": "t_address",
        "label": "mapping(address => mapping(uint256 => struct Listing))",
        "numberOfBytes": "32",
        "value": "t_mapping(t_uint256,t_struct(Listing)1478_storage)"
      },
      "t_mapping(t_address,t_struct(UintSet)1334_storage)": {
        "encoding": "mapping",
        "key": "t_address",
        "label": "mapping(address => struct EnumerableSet.UintSet)",
        "numberOfBytes": "32",
        "value": "t_struct(UintSet)1334_storage"
      },
      "t_mapping(t_bytes32,t_uint256)": {
        "encoding": "mapping",
        "key": "t_bytes32",
        "label": "mapping(bytes32 => uint256)",
        "numberOfBytes": "32",
        "value": "t_uint256"
      },
      "t_mapping(t_uint256,t_struct(Listing)1478_storage)": {
        "encoding": "mapping",
        "key": "t_uint256",
        "label": "mapping(uint256 => struct Listing)",
        "numberOfBytes": "32",
        "value": "t_struct(Listing)1478_storage"
      },
      "t_struct(Listing)1478_storage": {
        "encoding": "inplace",
        "label": "struct Listing",
        "members": [
          {
            "astId": 1475,
            "contract": "contracts/NFTMarketplace.sol:NFTMarketplace",
            "label": "seller",
            "offset": 0,
            "slot": "0",
            "type": "t_address"
          },
          {
            "astId": 1477,
            "contract": "contracts/NFTMarketplace.sol:NFTMarketplace",
            "label": "price",
            "offset": 0,
            "slot": "1",
            "type": "t_uint256"
          }
        ],
        "numberOfBytes": "64"
      },
      "t_struct(Set)862_storage": {
        "encoding": "inplace",
        "label": "struct EnumerableSet.Set",
        "members": [
          {
            "astId": 857,
            "contract": "contracts/NFTMarketplace.sol:NFTMarketplace",
            "label": "_values",
            "offset": 0,
            "slot": "0",
            "type": "t_array(t_bytes32)dyn_storage"
          },
          {
            "astId": 861,
            "contract": "contracts/NFTMarketplace.sol:NFTMarketplace",
            "label": "_indexes",
            "offset": 0,
            "slot": "1",
            "type": "t_mapping(t_bytes32,t_uint256)"
          }
        ],
        "numberOfBytes": "64"
      },
      "t_struct(UintSet)1334_storage": {
        "encoding": "inplace",
        "label": "struct EnumerableSet.UintSet",
        "members": [
          {
            "astId": 1333,
            "contract": "contracts/NFTMarketplace.sol:NFTMarketplace",
            "label": "_inner",
            "offset": 0,
            "slot": "0",
            "type": "t_struct(Set)862_storage"
          }
        ],
        "numberOfBytes": "64"
      },
      "t_uint16": {
        "encoding": "inplace",
        "label": "uint16",
        "numberOfBytes": "2"
      },
      "t_uint256": {
        "encoding": "inplace",
        "label": "uint256",
        "numberOfBytes": "32"
      }
    }
  }
}